{
	"data": {
		"bytecode": {
			"linkReferences": {},
			"object": "608060405234801561001057600080fd5b506102e8806100206000396000f3fe608060405234801561001057600080fd5b506004361061002b5760003560e01c8063d054ae1114610030575b600080fd5b61004a60048036038101906100459190610243565b61004c565b005b505050565b6000604051905090565b600080fd5b600080fd5b600073ffffffffffffffffffffffffffffffffffffffff82169050919050565b600061009082610065565b9050919050565b6100a081610085565b81146100ab57600080fd5b50565b6000813590506100bd81610097565b92915050565b600080fd5b600080fd5b6000601f19601f8301169050919050565b7f4e487b7100000000000000000000000000000000000000000000000000000000600052604160045260246000fd5b610116826100cd565b810181811067ffffffffffffffff82111715610135576101346100de565b5b80604052505050565b6000610148610051565b9050610154828261010d565b919050565b600067ffffffffffffffff821115610174576101736100de565b5b61017d826100cd565b9050602081019050919050565b82818337600083830152505050565b60006101ac6101a784610159565b61013e565b9050828152602081018484840111156101c8576101c76100c8565b5b6101d384828561018a565b509392505050565b600082601f8301126101f0576101ef6100c3565b5b8135610200848260208601610199565b91505092915050565b600061ffff82169050919050565b61022081610209565b811461022b57600080fd5b50565b60008135905061023d81610217565b92915050565b60008060006060848603121561025c5761025b61005b565b5b600061026a868287016100ae565b935050602084013567ffffffffffffffff81111561028b5761028a610060565b5b610297868287016101db565b92505060406102a88682870161022e565b915050925092509256fea264697066735822122083568a99b4f030461ac760a9f881136e259812000f2d5b4f3ff3e005fcd5b0fe64736f6c634300080b0033",
			"opcodes": "PUSH1 0x80 PUSH1 0x40 MSTORE CALLVALUE DUP1 ISZERO PUSH2 0x10 JUMPI PUSH1 0x0 DUP1 REVERT JUMPDEST POP PUSH2 0x2E8 DUP1 PUSH2 0x20 PUSH1 0x0 CODECOPY PUSH1 0x0 RETURN INVALID PUSH1 0x80 PUSH1 0x40 MSTORE CALLVALUE DUP1 ISZERO PUSH2 0x10 JUMPI PUSH1 0x0 DUP1 REVERT JUMPDEST POP PUSH1 0x4 CALLDATASIZE LT PUSH2 0x2B JUMPI PUSH1 0x0 CALLDATALOAD PUSH1 0xE0 SHR DUP1 PUSH4 0xD054AE11 EQ PUSH2 0x30 JUMPI JUMPDEST PUSH1 0x0 DUP1 REVERT JUMPDEST PUSH2 0x4A PUSH1 0x4 DUP1 CALLDATASIZE SUB DUP2 ADD SWAP1 PUSH2 0x45 SWAP2 SWAP1 PUSH2 0x243 JUMP JUMPDEST PUSH2 0x4C JUMP JUMPDEST STOP JUMPDEST POP POP POP JUMP JUMPDEST PUSH1 0x0 PUSH1 0x40 MLOAD SWAP1 POP SWAP1 JUMP JUMPDEST PUSH1 0x0 DUP1 REVERT JUMPDEST PUSH1 0x0 DUP1 REVERT JUMPDEST PUSH1 0x0 PUSH20 0xFFFFFFFFFFFFFFFFFFFFFFFFFFFFFFFFFFFFFFFF DUP3 AND SWAP1 POP SWAP2 SWAP1 POP JUMP JUMPDEST PUSH1 0x0 PUSH2 0x90 DUP3 PUSH2 0x65 JUMP JUMPDEST SWAP1 POP SWAP2 SWAP1 POP JUMP JUMPDEST PUSH2 0xA0 DUP2 PUSH2 0x85 JUMP JUMPDEST DUP2 EQ PUSH2 0xAB JUMPI PUSH1 0x0 DUP1 REVERT JUMPDEST POP JUMP JUMPDEST PUSH1 0x0 DUP2 CALLDATALOAD SWAP1 POP PUSH2 0xBD DUP2 PUSH2 0x97 JUMP JUMPDEST SWAP3 SWAP2 POP POP JUMP JUMPDEST PUSH1 0x0 DUP1 REVERT JUMPDEST PUSH1 0x0 DUP1 REVERT JUMPDEST PUSH1 0x0 PUSH1 0x1F NOT PUSH1 0x1F DUP4 ADD AND SWAP1 POP SWAP2 SWAP1 POP JUMP JUMPDEST PUSH32 0x4E487B7100000000000000000000000000000000000000000000000000000000 PUSH1 0x0 MSTORE PUSH1 0x41 PUSH1 0x4 MSTORE PUSH1 0x24 PUSH1 0x0 REVERT JUMPDEST PUSH2 0x116 DUP3 PUSH2 0xCD JUMP JUMPDEST DUP2 ADD DUP2 DUP2 LT PUSH8 0xFFFFFFFFFFFFFFFF DUP3 GT OR ISZERO PUSH2 0x135 JUMPI PUSH2 0x134 PUSH2 0xDE JUMP JUMPDEST JUMPDEST DUP1 PUSH1 0x40 MSTORE POP POP POP JUMP JUMPDEST PUSH1 0x0 PUSH2 0x148 PUSH2 0x51 JUMP JUMPDEST SWAP1 POP PUSH2 0x154 DUP3 DUP3 PUSH2 0x10D JUMP JUMPDEST SWAP2 SWAP1 POP JUMP JUMPDEST PUSH1 0x0 PUSH8 0xFFFFFFFFFFFFFFFF DUP3 GT ISZERO PUSH2 0x174 JUMPI PUSH2 0x173 PUSH2 0xDE JUMP JUMPDEST JUMPDEST PUSH2 0x17D DUP3 PUSH2 0xCD JUMP JUMPDEST SWAP1 POP PUSH1 0x20 DUP2 ADD SWAP1 POP SWAP2 SWAP1 POP JUMP JUMPDEST DUP3 DUP2 DUP4 CALLDATACOPY PUSH1 0x0 DUP4 DUP4 ADD MSTORE POP POP POP JUMP JUMPDEST PUSH1 0x0 PUSH2 0x1AC PUSH2 0x1A7 DUP5 PUSH2 0x159 JUMP JUMPDEST PUSH2 0x13E JUMP JUMPDEST SWAP1 POP DUP3 DUP2 MSTORE PUSH1 0x20 DUP2 ADD DUP5 DUP5 DUP5 ADD GT ISZERO PUSH2 0x1C8 JUMPI PUSH2 0x1C7 PUSH2 0xC8 JUMP JUMPDEST JUMPDEST PUSH2 0x1D3 DUP5 DUP3 DUP6 PUSH2 0x18A JUMP JUMPDEST POP SWAP4 SWAP3 POP POP POP JUMP JUMPDEST PUSH1 0x0 DUP3 PUSH1 0x1F DUP4 ADD SLT PUSH2 0x1F0 JUMPI PUSH2 0x1EF PUSH2 0xC3 JUMP JUMPDEST JUMPDEST DUP2 CALLDATALOAD PUSH2 0x200 DUP5 DUP3 PUSH1 0x20 DUP7 ADD PUSH2 0x199 JUMP JUMPDEST SWAP2 POP POP SWAP3 SWAP2 POP POP JUMP JUMPDEST PUSH1 0x0 PUSH2 0xFFFF DUP3 AND SWAP1 POP SWAP2 SWAP1 POP JUMP JUMPDEST PUSH2 0x220 DUP2 PUSH2 0x209 JUMP JUMPDEST DUP2 EQ PUSH2 0x22B JUMPI PUSH1 0x0 DUP1 REVERT JUMPDEST POP JUMP JUMPDEST PUSH1 0x0 DUP2 CALLDATALOAD SWAP1 POP PUSH2 0x23D DUP2 PUSH2 0x217 JUMP JUMPDEST SWAP3 SWAP2 POP POP JUMP JUMPDEST PUSH1 0x0 DUP1 PUSH1 0x0 PUSH1 0x60 DUP5 DUP7 SUB SLT ISZERO PUSH2 0x25C JUMPI PUSH2 0x25B PUSH2 0x5B JUMP JUMPDEST JUMPDEST PUSH1 0x0 PUSH2 0x26A DUP7 DUP3 DUP8 ADD PUSH2 0xAE JUMP JUMPDEST SWAP4 POP POP PUSH1 0x20 DUP5 ADD CALLDATALOAD PUSH8 0xFFFFFFFFFFFFFFFF DUP2 GT ISZERO PUSH2 0x28B JUMPI PUSH2 0x28A PUSH2 0x60 JUMP JUMPDEST JUMPDEST PUSH2 0x297 DUP7 DUP3 DUP8 ADD PUSH2 0x1DB JUMP JUMPDEST SWAP3 POP POP PUSH1 0x40 PUSH2 0x2A8 DUP7 DUP3 DUP8 ADD PUSH2 0x22E JUMP JUMPDEST SWAP2 POP POP SWAP3 POP SWAP3 POP SWAP3 JUMP INVALID LOG2 PUSH5 0x6970667358 0x22 SLT KECCAK256 DUP4 JUMP DUP11 SWAP10 0xB4 CREATE ADDRESS CHAINID BYTE 0xC7 PUSH1 0xA9 0xF8 DUP2 SGT PUSH15 0x259812000F2D5B4F3FF3E005FCD5B0 INVALID PUSH5 0x736F6C6343 STOP ADDMOD SIGNEXTEND STOP CALLER "
		},
		"gasEstimates": {
			"creation": {
				"codeDepositCost": "148800",
				"executionCost": "196",
				"totalCost": "148996"
			},
			"external": {
				"studentRegistration(address,string,uint16)": "infinite"
			}
		},
		"methodIdentifiers": {
			"studentRegistration(address,string,uint16)": "d054ae11"
		}
	},
	"abi": [
		{
			"inputs": [
				{
					"internalType": "address",
					"name": "_address",
					"type": "address"
				},
				{
					"internalType": "string",
					"name": "name",
					"type": "string"
				},
				{
					"internalType": "uint16",
					"name": "age",
					"type": "uint16"
				}
			],
			"name": "studentRegistration",
			"outputs": [],
			"stateMutability": "nonpayable",
			"type": "function"
		}
	]
}